:100000000A128A11FA2F00308A000408840A820733
:1000100000343F3406345B344F3466346D347D3401
:0600200007347F346F3449
:100F24008316031386018312031386010330831689
:100F3400031388008312031388017008013E8400A0
:100F44000A128A1103200A128A118600081CD32F60
:100F54000818AA2F0D30F300FB30F200F20BB02F6B
:100F6400F30BB02FB52F0130F0070318F10A00304E
:100F7400F1077008013E84000A128A1103200A1244
:100F84008A118312031386007108803AFF008030AF
:100F94007F02031DCF2F0A307002031CD32FF001F0
:100FA400F10183120313881CA82F8818D72F0D3042
:100FB400F300FB30F200F20BDD2FF30BDD2FE22FF9
:100FC400FF30F0070318F10AFF30F1077008013E03
:100FD40084000A128A1103200A128A11831203134D
:100FE4008600F11FA82F0A30F0000030F100A82F6E
:0C0FF400F001F10183010A128A11922F12
:02400E00F93F78
:00000001FF
