:060000000A128A11EE2F26
:100EF2007E088A007F08820079270A128A11800000
:100F0200840A04087D0603190034FF0A0319FE0A45
:100F12007D2F0134003402340034043400340834A8
:100F2200003410340034033400343A3400343B3497
:100F320000343A3400340334003483160313860138
:100F42008701F001F1017108803AFF0080307F02D1
:100F5200031DAD2F0A3070020318A22FF201F30114
:100F62007308803AFF0080307F02031DBA2F0530DC
:100F720072020318E72F7208F4007407203E8400FF
:100F8200831300088312031387007208F4007407A6
:100F92002A3E8400000886000D30F500FB30F40084
:100FA200F40BD12FF50BD12FD62F0130F2070318F6
:100FB200F30A0030F3077308803AFF0080307F02A3
:100FC200031DE52F05307202031CBC2F0130F00710
:100FD2000318F10A0030F107A42F83133430FD0007
:100FE2000730FE008A30FF00203084000A128A1186
:0E0FF2007D27F201F30183010A128A119E2F5E
:02400E00F93F78
:00000001FF
