:100000000A128A11FA2F00308A000408840A820733
:1000100000343F3406345B344F3466346D347D3401
:0600200007347F346F3449
:100DE000F601F31FFA2EF209F309F20A0319F30AC6
:100DF000F601F60AF11F012FF009F109F00A0319B3
:100E0000F10A7008710403192E2FF501F50AF11B80
:100E1000152F01300310F00DF10DFF3E031D0A2FB9
:100E20000130F4007408F507072F71087302031DE1
:100E30001B2F70087202031C232F7008F202710826
:100E4000031CF303F30201300310F10CF00CFF3E1E
:100E5000031D242F0130F502031D152F76080319F9
:100E6000362FF209F309F20A0319F30A7308F100A5
:100E70007208F0000800F601F11F452FF009F10992
:100E8000F00A0319F10AF601F60AF31F502FF209CE
:100E9000F309F20A0319F30A0130F4007408F606A4
:100EA000F701F801700871040319872FF501F50A9D
:100EB000F11B662F01300310F00DF10DFF3E031DF5
:100EC0005B2F0130F4007408F507582F0130031030
:100ED000F70DF80DFF3E031D672F71087302031D08
:100EE000732F70087202031C7C2F7008F2027108C5
:100EF000031CF303F302771401300310F10CF00C20
:100F0000FF3E031D7D2F0130F502031D662F76087D
:100F100003198F2FF709F809F70A0319F80A780857
:100F2000F1007708F000080083160313860183128E
:100F300003138601831603138701033083120313FF
:100F400087000A30F0000030F1007C08F3007B08D5
:100F5000F2000A128A113B270A128A1171088312C1
:100F60000313A1007008A0000A30F0000030F10067
:100F70007C08F3007B08F2000A128A11F0260A129C
:100F80008A11710883120313A3007008A2000710CE
:100F90002208013E84000A128A1103200A128A11D3
:100FA00086008230FA00DD30F900F90BD52FFA0BFC
:100FB000D52FDA2F83120313071487102008013E60
:100FC00084000A128A1103200A128A1186008230D4
:100FD000FA00DD30F900F90BEB2FFA0BEB2FF02FB5
:100FE0008312031387140130FB070318FC0A003037
:100FF000FC07A12FFB01FC0183010A128A11942F27
:02400E00F93F78
:00000001FF
