:060000000A128A11122809
:10000800FE00030EF0000408F1000A08F200831253
:1000180003137F08F3000A128A111B280A128A1197
:100028001528F401F50183010A128A113C280C1CD9
:1000380031280130F4070318F50A0030F5071430A9
:1000480074067504031D2C28F401F5010130860699
:100058000C103C308F00B0308E007308FF0072081F
:100068008A0071088400700E8300FE0E7E0E09005F
:100078008B17F401F5018316031386010B170C1473
:100088008312031390121012901010143C308F003A
:08009800B0308E0086014F28F4
:02400E00F93F78
:00000001FF
