:060000000A128A11EC2F28
:100EA40001340134003483160313860183120313BF
:100EB40086017C08831203138600C330FA00CD3008
:100EC400F900F90B632FFA0B632F7C08F9007907FB
:100ED400FA007A08FC005B2F7C0883120313860057
:100EE400C330FA00CD30F900F90B762FFA0B762FC8
:100EF4000230F0000030F1007C08F900FA017908B2
:100F0400F2007A08F3000A128A1193270A128A114E
:100F14007008FB007B08FC0002307C02031C5B2F82
:100F24006E2FF601F11F9D2FF009F109F00A031944
:100F3400F10AF601F60AF31FA82FF209F309F20ADF
:100F44000319F30A0130F4007408F606F701F801F6
:100F5400700871040319DF2FF501F50AF11BBE2F88
:100F640001300310F00DF10DFF3E031DB32F0130CE
:100F7400F4007408F507B02F01300310F70DF80DD5
:100F8400FF3E031DBF2F71087302031DCB2F700892
:100F94007202031CD42F7008F2027108031CF303BD
:100FA400F302771401300310F10CF00CFF3E031D23
:100FB400D52F0130F502031DBE2F76080319E72F44
:100FC400F709F809F70A0319F80A7808F10077080D
:100FD400F00008000A128A1153270A128A11A0008D
:100FE4000A128A1154270A128A11A1000A128A11BC
:0C0FF4005227FC0083010A128A11552FBD
:02400E00F93F78
:00000001FF
