:060000000A128A11F22F22
:100E9600013400348316031386018312031386017B
:100EA6007C08803AFF0081307F02031D5C2F0030F2
:100EB6007B0203188D2F7B08831203138600C33031
:100EC600FA00CD30F900F90B662FFA0B662F0310E6
:100ED6007B0DFB007C0DFC00532F7B088312031354
:100EE6008600C330FA00CD30F900F90B782FFA0BE3
:100EF600782F0230F0000030F1007C08F3007B0808
:100F0600F2000A128A1199270A128A117108FC0046
:100F16007008FB007C08803AFF0080307F02031DCA
:100F2600962F02307B02031C532F702FF601F11F00
:100F3600A32FF009F109F00A0319F10AF601F60ADE
:100F4600F31FAE2FF209F309F20A0319F30A01306F
:100F5600F4007408F606F701F80170087104031925
:100F6600E52FF501F50AF11BC42F01300310F00D32
:100F7600F10DFF3E031DB92F0130F4007408F5078B
:100F8600B62F01300310F70DF80DFF3E031DC52FD8
:100F960071087302031DD12F70087202031CDA2F29
:100FA6007008F2027108031CF303F3027714013090
:100FB6000310F10CF00CFF3E031DDB2F0130F50290
:100FC600031DC42F76080319ED2FF709F809F70A50
:100FD6000319F80A7808F1007708F00008000A12E9
:100FE6008A114B270A128A11FB000A128A114C2712
:0A0FF600FC0083010A128A114D2F3E
:02400E00F93F78
:00000001FF
