:100000000A128A11FA2F00308A000408840A820733
:1000100000343F3406345B344F3466346D347D3401
:0600200007347F346F3449
:100C3A00F401F501701C272E7208F4070318F50A4F
:100C4A007308F50701300310F20DF30DFF3E031D83
:100C5A00282E01300310F10CF00CFF3E031D2F2E3D
:100C6A0070087104031D1F2E7508F1007408F00046
:100C7A000800F601F31F482EF209F309F20A0319D4
:100C8A00F30AF601F60AF11F4F2EF009F109F00AEC
:100C9A000319F10A7008710403197C2EF501F50A8B
:100CAA00F11B632E01300310F00DF10DFF3E031D01
:100CBA00582E0130F4007408F507552E7108730296
:100CCA00031D692E70087202031C712E7008F2024D
:100CDA007108031CF303F30201300310F10CF00C4A
:100CEA00FF3E031D722E0130F502031D632E7608A6
:100CFA000319842EF209F309F20A0319F30A730895
:100D0A00F1007208F000080083120313A901F71F0B
:100D1A00952EF609F709F60A0319F70AA901A90A8D
:100D2A00F91FA02EF809F909F80A0319F90A01307E
:100D3A00FA007A08A906AA01AB0176087704031912
:100D4A00D72EA801A80AF71BB62E01300310F60DFC
:100D5A00F70DFF3E031DAB2E0130FA007A08A807F3
:100D6A00A82E01300310AA0DAB0DFF3E031DB72EAE
:100D7A0077087902031DC32E76087802031CCC2E4D
:100D8A007608F8027708031CF903F9022A140130DD
:100D9A000310F70CF60CFF3E031DCD2E0130A802FE
:100DAA00031DB62E29080319DF2EAA09AB09AA0AC0
:100DBA000319AB0A2B08F7002A08F6000800831665
:100DCA000313880183120313880183160313850111
:100DDA00831203138501E830F6000330F7007C081C
:100DEA00F9007B08F8000A128A1189260A128A1168
:100DFA00770883120313A1007608A0006430F60076
:100E0A000030F7002108F1002008F000E830F20075
:100E1A000330F3000A128A111D260A128A11700978
:100E2A0083120313AC007109AD00AC0A0319AD0AB1
:100E3A007B082C07F8007C0803187C0A2D07F900A8
:100E4A000A128A1189260A128A1177088312031351
:100E5A00A3007608A2000A30F6000030F700210845
:100E6A00F1002008F000E830F2000330F3000A1223
:100E7A008A111D260A128A11700883120313AC0004
:100E8A007108AD002308F1002208F0006430F20076
:100E9A000030F3000A128A111D260A128A117008FC
:100EAA00831203132C07AE0071080318710A2D0769
:100EBA00AF00AE09AF09AE0A0319AF0A7B082E07C5
:100ECA00F8007C0803187C0A2F07F9000A128A1115
:100EDA0089260A128A11770883120313A500760855
:100EEA00A4000A30F0000030F1007C08F3007B080F
:100EFA00F2000A128A113E260A128A117108831216
:100F0A000313A7007008A60005102608013E8400F6
:100F1A000A128A1103200A128A1188000514033062
:100F2A0083120313AE008A30AD005530AC00AC0B0F
:100F3A009C2FAD0B9C2FAE0B9C2F83120313851095
:100F4A002408013E84000A128A1103200A128A1117
:100F5A0088008514033083120313AE008A30AD0073
:100F6A005530AC00AC0BB72FAD0BB72FAE0BB72F6C
:100F7A008312031307112208013E84000A128A1100
:100F8A0003200A128A1188000715033083120313FB
:100F9A00AE008A30AD005530AC00AC0BD22FAD0B91
:100FAA00D22FAE0BD22F8312031387112008013ED2
:100FBA0084000A128A1103200A128A1188008715EE
:100FCA00033083120313AE008A30AD005530AC00F3
:100FDA00AC0BED2FAD0BED2FAE0BED2F0130FB0758
:100FEA000318FC0A0030FC07F02EFB01FC01830108
:060FFA000A128A11E42E28
:02400E00F93F78
:00000001FF
