:060000000A128A11F22F22
:100F7600013400348316031386018312031386019A
:100F86000130831603138700831203138701EA2FA8
:100F9600013086000630F2001330F100AD30F0006B
:100FA600F00BD32FF10BD32FF20BD32FDA2F8312A3
:100FB600031386010630F2001330F100AD30F00065
:100FC600F00BE32FF10BE32FF20BE32FEA2F831243
:100FD6000313071CCB2F831203138601EA2F0A1271
:100FE6008A11BB270A128A11F3000A128A11BC273A
:0A0FF600F40083010A128A11BD2FD6
:02400E00F93F78
:00000001FF
