:060000000A128A11122809
:10000800FE00030EF0000408F1000A08F200831253
:1000180003137F08F3000A128A111B280A128A1197
:100028001528F401F50183010A128A113A280B1DDB
:100038002F280130F4070318F50A0030F5070A30B5
:1000480074067504031D2C28F401F5010130860699
:100058003D3081000B117308FF0072088A00710897
:100068008400700E8300FE0E7E0E09008B178B161F
:1000780007308316031381003D3083120313810078
:10008800F401F50183160313860183120313850116
:020098004C28F2
:02400E00F93F78
:00000001FF
