:060000000A128A11EC2F28
:100E6600F300F201731C3B2F7008F1007108F207C2
:100E76000310F00D0310F30C7308031D352F7208D1
:100E860008007E088A007F08820044270A128A1119
:100E96008000840A04087D0603190034FF0A03193A
:100EA600FE0A482F033400343A3400343B3400340D
:100EB6003A34003403340034403400345E340034B1
:100EC6001E3400345E3400345E340034831603135B
:100ED60086018701FB01FC017C08803AFF00803017
:100EE6007F02031D782F02307B0203186D2FF70156
:100EF600F8017808803AFF0080307F02031D852FB5
:100F0600643077020318E52F01308312031387003C
:100F1600F901FA017A08803AFF0080307F02031D4A
:100F2600962F053079020318D42F7908F400013082
:100F36000310F40DFF3E031D9B2F0A30F5007508C4
:100F4600F0007B080A128A1133270A128A11203E02
:100F56007407F600760884008313000883120313CF
:100F660086000D30F500FB30F400F40BB82FF50BBE
:100F7600B82FBD2F831203130708F40074078700E8
:100F86000130F9070318FA0A0030FA077A08803A9E
:100F9600FF0080307F02031DD22F05307902031C2B
:100FA600982F0130F7070318F80A0030F807780879
:100FB600803AFF0080307F02031DE32F6430770202
:100FC600031C872F0130FB070318FC0A0030FC07BF
:100FD6006F2F83133430FD000730FE005530FF00BD
:100FE600203084000A128A114827F701F801F90116
:0A0FF600FA0183010A128A11692F23
:02400E00F93F78
:00000001FF
