:100000000A128A11FA2F00308A000408840A820733
:1000100000343F3406345B344F3466346D347D3401
:0600200007347F346F3449
:100C5400F401F501701C342E7208F4070318F50A28
:100C64007308F50701300310F20DF30DFF3E031D69
:100C7400352E01300310F10CF00CFF3E031D3C2E09
:100C840070087104031D2C2E7508F1007408F0001F
:100C94000800F601F31F552EF209F309F20A0319AD
:100CA400F30AF601F60AF11F5C2EF009F109F00AC5
:100CB4000319F10A700871040319892EF501F50A64
:100CC400F11B702E01300310F00DF10DFF3E031DDA
:100CD400652E0130F4007408F507622E7108730262
:100CE400031D762E70087202031C7E2E7008F20219
:100CF4007108031CF303F30201300310F10CF00C30
:100D0400FF3E031D7F2E0130F502031D702E760871
:100D14000319912EF209F309F20A0319F30A73086D
:100D2400F1007208F000080083120313A901F71FF1
:100D3400A22EF609F709F60A0319F70AA901A90A66
:100D4400F91FAD2EF809F909F80A0319F90A013057
:100D5400FA007A08A906AA01AB01760877040319F8
:100D6400E42EA801A80AF71BC32E01300310F60DC8
:100D7400F70DFF3E031DB82E0130FA007A08A807CC
:100D8400B52E01300310AA0DAB0DFF3E031DC42E7A
:100D940077087902031DD02E76087802031CD92E19
:100DA4007608F8027708031CF903F9022A140130C3
:100DB4000310F70CF60CFF3E031DDA2E0130A802D7
:100DC400031DC32E29080319EC2EAA09AB09AA0A8C
:100DD4000319AB0A2B08F7002A08F600080083164B
:100DE40003138601831203138601831603138701F9
:100DF4000330831203138700E830F6000330F70052
:100E04007C08F9007B08F8000A128A1196260A1257
:100E14008A11770883120313A1007608A0006430B6
:100E2400F6000030F7002108F1002008F000E83057
:100E3400F2000330F3000A128A112A260A128A11D8
:100E4400700983120313AC007109AD00AC0A0319D5
:100E5400AD0A7B082C07F8007C0803187C0A2D07D0
:100E6400F9000A128A1196260A128A117708831247
:100E74000313A3007608A2000A30F6000030F7003E
:100E84002108F1002008F000E830F2000330F300FC
:100E94000A128A112A260A128A117008831203136D
:100EA400AC007108AD002308F1002208F0006430A2
:100EB400F2000030F3000A128A112A260A128A115B
:100EC4007008831203132C07AE0071080318710A0B
:100ED4002D07AF00AE09AF09AE0A0319AF0A7B08AC
:100EE4002E07F8007C0803187C0A2F07F9000A1261
:100EF4008A1196260A128A11770883120313A50011
:100F04007608A4000A30F0000030F1007C08F300F9
:100F14007B08F2000A128A114B260A128A11710800
:100F240083120313A7007008A60007102608013EC9
:100F340084000A128A1103200A128A1186000D30D5
:100F440083120313AD00FB30AC00AC0BA72FAD0B29
:100F5400A72F83120313071487102408013E84006B
:100F64000A128A1103200A128A1186000D30831294
:100F74000313AD00FB30AC00AC0BBE2FAD0BBE2F8A
:100F840083120313871407112208013E84000A12F6
:100F94008A1103200A128A1186000D30831203136A
:100FA400AD00FB30AC00AC0BD52FAD0BD52F8312AD
:100FB4000313071587112008013E84000A128A11C1
:100FC40003200A128A1186000D3083120313AD0028
:100FD400FB30AC00AC0BEC2FAD0BEC2F83120313E6
:100FE40087150130FB070318FC0A0030FC07FE2EAE
:0C0FF400FB01FC0183010A128A11F12E9E
:02400E00F93F78
:00000001FF
