:060000000A128A11122809
:10000800FE00030EF3000408F4000A08F50083124A
:1000180003137F08F6000A128A1168280A128A1147
:10002800152883010A128A1119288B170B1601301B
:100038008316031386008501831203138501831237
:1000480003138610063083120313A2001330A10095
:10005800AD30A000A00B2E28A10B2E28A20B2E2815
:10006800831203138614063083120313A20013307D
:10007800A100AD30A000A00B3F28A10B3F28A20B88
:100088003F28831203130611063083120313A200BC
:100098001330A100AD30A000A00B5028A10B5028B0
:1000A800A20B50288312031306150630831203137C
:1000B800A2001330A100AD30A000A00B6128A10B55
:1000C8006128A20B612823288B1C7A28013085001F
:1000D8000B30F2002630F1005D30F000F00B722892
:1000E800F10B7228F20B722879288B1083120313F4
:1000F80085017608FF0075088A0074088400730E6D
:080108008300FE0E7E0E0900CB
:02400E00F93F78
:00000001FF
