:100000000A128A11FA2F00308A000408840A820733
:1000100000343F3406345B344F3466346D347D3401
:0600200007347F346F3449
:100F90008316031386018312031386017308013E2F
:100FA00084000A128A1103200A128A118312031381
:100FB00086000630F2001330F100AD30F000F00B87
:100FC000DF2FF10BDF2FF20BDF2FE62F0130F307BE
:100FD0000318F40A0030F4077408803AFF008030E8
:100FE0007F02031DF52F0A307302031CCE2FF3017D
:100FF000F401CE2FF301F40183010A128A11C82FE4
:02400E00F93F78
:00000001FF
